:020000040800F2
:100000001021002015030008E53500081F2E000808
:10001000E1350008591F0008A596000800000000FF
:1000200000000000000000000000000095500008E3
:10003000292500080000000015370008595800085D
:100040002F0300082F0300082F0300082F030008C8
:100050002F0300082F0300082F0300082F030008B8
:100060002F0300082F0300082F0300082F030008A8
:100070002F0300082F0300082F0300082F03000898
:100080002F0300082F0300082F0300082F03000888
:100090002F0300082F0300082F0300082F03000878
:1000A0002F0300082F0300082F0300082F03000868
:1000B000295900082F0300082F030008252E0008E7
:1000C0002F0300082F0300082F0300082F03000848
:1000D0002F030008215A00082F030008855A000842
:1000E0002F0300082F0300082F0300082F03000828
:1000F0002F0300082F0300082F0300082F03000818
:100100002F030008253D00082F0300082F030008D7
:100110002F0300082F0300082F0300082F030008F7
:100120002F0300082F0300082F030008D522000822
:100130002F0300082F0300082F0300082F030008D7
:100140002F0300082F0300082F0300082F030008C7
:100150002F0300082F0300082F030008415B00084D
:100160002F0300082F0300082F0300082F030008A7
:100170002F030008053700082F0300082F0300088D
:100180002F0300082F03000800F002F800F0B2F877
:100190000AA090E8000C82448344AAF10107DA45E2
:1001A00001D100F0A7F8AFF2090EBAE80F0013F082
:1001B000010F18BFFB1A43F001031847A0DD000030
:1001C000C0DD00000A444FF0000C10F8013B13F0B2
:1001D000070408BF10F8014B1D1108BF10F8015BA0
:1001E000641E05D010F8016B641E01F8016BF9D193
:1001F00013F0080F1EBF10F8014BAD1C0C1B09D1EA
:100200006D1E58BF01F801CBFAD505E014F8016B5B
:1002100001F8016B6D1EF9D59142D6D370470000ED
:100220000023002400250026103A28BF78C1FBD8FF
:10023000520728BF30C148BF0B6070476E2900F0DD
:10024000E581702900F0278366290DF06682652913
:100250000DF0638267290DF0608261290DF05F82E5
:1002600003681B0A28BF41F08001692900F09281D0
:10027000642900F08F81752900F08C816F2900F0CE
:10028000B582782900F0F382E92900F04F82E42951
:1002900000F04C82F52900F04982EF2900F0B2828B
:1002A000F82900F0F2820368DB0928BF41F08001E1
:1002B000632900F0F787732900F0FC87E32901F038
:1002C0000780F32901F00C80002070471FB50DF066
:1002D0001AFA01F05BF80400002000210CF0DEFBAC
:1002E000401C6060002000210CF0C2FBE0601FBDDC
:1002F00010B510BD01F01CF81146FFF7E7FF0CF038
:10030000DDF801F0F5F803B4FFF7F2FF03BC01F0EC
:1003100039F900000948804709480047FEE7FEE731
:10032000FEE7FEE7FEE7FEE7FEE7FEE7FEE7FEE7A5
:1003300004480549054A064B70470000C1580008AB
:1003400089010008101B002010210020101D002032
:10035000101D00201CB50C46064B7B4469460090DE
:10036000204600F06CF904460020694600F07AF956
:1003700020461CBD07030000032A40F2308010F025
:10038000030C00F0158011F8013BBCF1020F624430
:1003900098BF11F801CB00F8013B38BF11F8013BC1
:1003A000A2F1040298BF00F801CB38BF00F8013B6E
:1003B00011F0030300F02580083AC0F0088051F8DE
:1003C000043B083A51F804CBA0E80810F5E7121DE9
:1003D0005CBF51F8043B40F8043BAFF30080D20708
:1003E00024BF11F8013B11F801CB48BF11F8012BD4
:1003F00024BF00F8013B00F801CB48BF00F8012BF7
:10040000704710B5203AC0F00B80B1E81850203A80
:10041000A0E81850B1E81850A0E81850BFF4F5AFA4
:100420005FEA027C24BFB1E81850A0E8185044BF2E
:1004300018C918C0BDE810405FEA827C24BF51F89B
:10044000043B40F8043B08BF7047D20728BF31F88F
:10045000023B48BF11F8012B28BF20F8023B48BFE0
:1004600000F8012B70474FF0000200B51346944688
:100470009646203922BFA0E80C50A0E80C50B1F1FC
:100480002001BFF4F7AF090728BFA0E80C5048BF10
:100490000CC05DF804EB890028BF40F8042B08BFAE
:1004A000704748BF20F8022B11F0804F18BF00F8AA
:1004B000012B704770477047704710B500F0BAFACB
:1004C000006810BD10B5044600F0B4FA046010BD19
:1004D00070B5044685690068C10601D5302600E084
:1004E0002026C00707D070BDD4E9012130469047CF
:1004F000206A401C20626D1EF6D570BD70B50446A2
:1005000085690078C00707D170BDD4E9012120209A
:100510009047206A401C20626D1EF6D570BD0968A8
:100520004A0501D540B27047C905FCD500B27047F5
:1005300009684A0501D5C0B27047C905FCD580B22B
:10054000704770B50C460546012A05D0287880060C
:1005500000D5EA69002302E0012305E05B1C934219
:1005600002D2E05C0028F9D1A869E618C01AA86197
:10057000286A184428622846FFF7AAFF04E0D5E954
:10058000012114F8010B9047B442F8D32846FFF735
:10059000B5FF70BD2DE9F0410646002410687529AD
:1005A000314616A510D0FFF7BAFF002802DA404204
:1005B00013A507E031688A0701D512A502E04907B3
:1005C00004D511A5012401E0FFF7B2FF00210A22A2
:1005D00006F1240709E0B0FBF2FCB0FBF2F302FBEA
:1005E0001C00303078541846491C0028F3D12346AB
:1005F0002A463046BDE8F04100F065BA0000000030
:100600002D0000002B00000020000000116802688F
:10061000006A530501D508700AE0D30501D50880AA
:1006200006E0130603D5C217C1E9000200E0086026
:100630000120704701694A1C02610878704700B5C3
:100640008FB0CDE901310021059105497944CDE90B
:1006500003101146684600F029F90FB000BD0000F4
:10066000E5FFFFFF0A6802F8010B0A60704700000F
:100670002DE9FF5F15468A460446DFF8AC80F84452
:100680000027D8E900103E46CDE9001010E03AF806
:1006900016106A4602A800F027FE411C07D02178F8
:1006A000890603D5E269391891420DD80744761CB2
:1006B0002078800602D5E069B84205DDAE42E6DB6F
:1006C0003AF816000028E2D1A069C01BA0612046BC
:1006D000FFF7FEFED8E90010CDE90010002017E07A
:1006E0003AF818106A4602A800F0FEFDB0F1FF3F8C
:1006F00081460BD000250DF1080B05E0D4E901215E
:100700001BF8050090476D1C4D45F7D308F101001B
:10071000B0428046E4DB206A384420622046FFF77E
:10072000EDFEBDE8FF9F0000CED700002DE9F041AF
:100730008046D21D22F007020025D2E90002F529E9
:1007400015A614D0011E72F1000106DA0023D0EBC9
:10075000030063EB020211A608E0D8F800108B0733
:1007600001D50FA602E0490701D50EA601251146C5
:10077000002408F1240704E000F060F930323A5513
:10078000641C50EA0102F7D12B463246214640460E
:10079000BDE8F04100F097B9000000002D00000016
:1007A0002B0000002000000030B4002100F12404E0
:1007B00008E002F00705D208303542EA4372DB0850
:1007C0006554491C52EA0305F3D10468002310A2C2
:1007D000250708D504F020040C4304D0C469012384
:1007E0000CA2641EC46130BC00F06DB910B50446A3
:1007F00021461068FFF79CFE02462046BDE81040E7
:100800000023D1E7D21D22F00701D1E90023CBE775
:100810000000000030000000F0B40D46018809051A
:1008200002D5214C7C4402E01F4C7C440E34002154
:1008300000F1240608E002F00F071209E75D42EA22
:1008400003721B097754491C52EA0307F3D102785B
:100850000023120704D5702D06D009B102231134EC
:100860002246F0BC00F02FB901231034F8E770B530
:1008700004460D4621461068FFF75AFE02462946F7
:100880002046BDE870400023C6E7D21D22F00703D2
:10089000D3E90023C0E70368126843F02003036034
:1008A0000823C3610023B7E730D600002DE9F05FCD
:1008B000894604464FF0000ADFF874B1FB44C0F8E3
:1008C00020A02046E1688847002874D0252806D05B
:1008D000D4E901219047206A401C2062F1E70026FC
:1008E0005F462046E16888472028054607DB312D12
:1008F00005D2781910F8200C08B10643F1E7B007CB
:1009000001D526F00406C4F81CA00027C4F818A0DE
:100910002A2D09D0284609F03BFF38B304EB87089D
:10092000303DC8F8185019E059F8041B204604EB74
:1009300087029161E1688847012F054618D1E06977
:10094000002820DA26F020061DE0D8F8180000EB79
:10095000800005EB40003038C8F818002046E168F8
:100960008847054609F014FF0028EED1012F0AD070
:100970002E2D08D12046E16888477F1C0546022FAE
:1009800046F02006C4DBA069002803DA404246F0A6
:100990000106A061F00701D026F010066C2D0BD0E7
:1009A000682D09D04C2D39D06A2D35D0742D35D015
:1009B0007A2D33D016E038E0E1682F46204688478C
:1009C000B842054609D16C2F26D04FF48060E1680B
:1009D000064320468847054604E06C2F1AD04FF4A2
:1009E000807006430DB3A5F14100192802D82035C7
:1009F00046F400664A462946204626604E46FFF7E2
:100A00001DFC80B101280BD0F61D26F0070000F177
:100A1000080956E74020E4E78020D8E70020D6E721
:100A200006F104094DE7284652E7206ABDE8F09F29
:100A3000C0D5000000487047AC1A002030B5B0F1B6
:100A40000A024FEA900E71F100034EEA817EB0EB8C
:100A50000E0061EB91014FEA101E4EEA017E10EB91
:100A60000E0041EB11114FEA102E4EEA016E10EB11
:100A70000E0041EB11214FEA104E4EEA014E10EBF1
:100A80000E0041EB1141401841F100014FEAD00046
:100A900040EA41704FEAD10110EB80054FEA810432
:100AA00044EA907444EB01046D1944EB0404521BB6
:100AB000A3414FF0000348BF0A3200D530BD401CAF
:100AC00041F1000130BD2DE9F0470D4699469246AF
:100AD000044600F124080168880604D5E06921F085
:100AE0001001216000E00120A84201DD471B00E069
:100AF0000027A1697A1902EB0900081AA061207881
:100B0000C00602D42046FFF7E3FC002608E0D4E943
:100B100001211AF806009047206A401C761C2062CA
:100B20004E45F4DB2078C0060AD52046FFF7D0FCFE
:100B300006E0D4E9012130209047206A401C206261
:100B4000381EA7F10107F4DC07E0D4E9012118F809
:100B500005009047206A401C2062281EA5F101056F
:100B6000F3DC2046FFF7CAFC2078000602D50220FD
:100B7000BDE8F0870120FBE770472DE9FF4F0C46E9
:100B80001E464FF0FF378BB0D2E90001DDF86080E0
:100B90000A908A46C1F30A5505B93D460021084628
:100BA0004FF00000BAF1000F00F4400005DA00EB4E
:100BB00080004FF4400101EA50004FEA9059B9F12A
:100BC000010F00DDB9460A9850EA4A000ED044F6FB
:100BD0001050A5F2FF3545432F14B8F1000F1ED079
:100BE0007542291E1EDDC9F100021CE0B8F1010F9B
:100BF0004FF0000001D0302103E0F24305E0215422
:100C0000401CB042FBDB30460022002121540B99EE
:100C1000C1F80880C1E900200FB0BDE8F08FBD1B0E
:100C20006D1CDEE74A4600DA694206A800F0F2FBD6
:100C300006AB93E8070003AB83E8070050460A9928
:100C400000F0A7FC8DE80700A0F500501F380090C9
:100C50000398002D09DD42F21F014A46084403A90A
:100C60000390684600F006FF08E0A0F500504A46F1
:100C70001F3803A90390684600F010FF8DE80700B5
:100C80000004000C03D04FF0FF30410800E0104694
:100C9000B8F1000F03D00022009215461EE0751E29
:100CA00005D4FFF7CBFE303262556D1EF9D5B34641
:100CB0000122084302D000227F1C04E02078302863
:100CC00001D100227F1E002A099786D01DE0112D38
:100CD00007DAFFF7B3FE303262556D1C50EA0102AD
:100CE000F5D1084302D00098C8B10EE00021681E7B
:100CF00005E0235C625C63542254401E491C81421F
:100D0000F7DBAB46A81B401E0990002004F80B003F
:100D10000B98099AC0F80880C0E9002B7CE71126DF
:100D20004FF0000859E72DE9F04F88460446D21DE0
:100D300022F0070191B0D1E90001CDE90A0108F0E4
:100D400015FE02460B98C00F01D02D2007E0206849
:100D5000810701D52B2002E0202101EAC000032AEF
:100D6000099001D0072A05DB03464146204600F0E2
:100D700011FB0BE12078800601D5E06900E0062038
:100D8000B8F1650F814606D0B8F1660F18D0B8F1FA
:100D9000670F70D131E00020B9F1110F009001DB35
:100DA000112301E009F101030AAA01A90CA8FFF728
:100DB000E4FEDDE90C70002609F10105834647E0F9
:100DC00001204B4600904FF000470AAA01A90CA849
:100DD000FFF7D3FEDDE90DB00C995D46002610B992
:100DE00009F101000D18B9EB050003D4C0F1FF367D
:100DF00009F10105A5EB09002BE0B9F1010F01DABA
:100E00004FF001090020B9F1110F0090484601DDB3
:100E1000112300E003460AAA01A90CA8FFF7ADFEC2
:100E2000DDE90C704D4600268346207800070AD481
:100E3000AB4500DA5D4601A8012D04DD411911F82A
:100E4000011C302907D04F4502DA17F1040F04DAEC
:100E5000012082460FE06D1EEEE7002F02DCED1B45
:100E60003E4403E0781CA84200DD7D1CB81B00F165
:100E7000010A4FF000472078000703D4AA4501DBA0
:100E80004FF0FF3A0021B7F1004F0DF143088DF804
:100E9000431024D002202B23002F01DA7F422D2380
:100EA0000A21021EA0F1010000DC5FB197FBF1FCFA
:100EB00097FBF1F201FB1C7C17460CF1300C08F893
:100EC00001CDEEE7A8F1010003702188090501D5E5
:100ED000452100E06521A0F1010800F8011C0998F6
:100EE0000FA9A1EB0807FF1D00B10120411901EB7B
:100EF000EA70A1693844081A401EA0612078C00633
:100F000002D42046FFF7E4FA099828B1D4E9012178
:100F10009047206A401C20622078C00622D52046D7
:100F2000FFF7D6FA1EE0002E04DBB34502DD01A870
:100F3000805D00E03020D4E901219047206A401C08
:100F40002062761CAAF101005FEA000A0AD100F0D3
:100F50001DFAC0680168405CD4E901219047206A0D
:100F6000401C2062281EA5F10105DCDC07E0D4E965
:100F7000012118F8010B9047206A401C2062381E9E
:100F8000A7F10107F3DC2046FFF7B8FA032011B000
:100F900043E600002DE9F04F04460D46D21D22F035
:100FA000070089B0D0E9009248461746394608F054
:100FB000DDFC0246F80F01D02D2307E020688107F1
:100FC00001D52B2302E0202101EAC0038DF8203057
:100FD0000BB1012000E00020032A824601D0072A3D
:100FE00004DB2946204600F0D5F93DE12078800653
:100FF00001D40D2500E0E569C7F30A560D2D49DA45
:1010000000214FEA175B08464FF00000002F00F464
:10101000400007DA00EB80004FF4400100EBD07095
:1010200001EA60008115012901DD4FF0FF31002246
:101030004FEA850CBCF1180F06D31346ACF118002B
:101040004FF08052C24003E04FF4801323FA0CF3B8
:101050000CF10C0CBCF1200F04D3ACF1200C09FAFC
:101060000CF001E007FA0CF000294FF0004801DD18
:1010700018B90FE00ED140450CD319EB02095F41BE
:1010800021B9404502D19F4329EA0209BBEB175F12
:1010900000D0761C2088000502D57B48784402E009
:1010A00079487844193808AA302302F80A30037CBA
:1010B0000AF10101002E0AF1020A53546A4602DCC9
:1010C0004FF0300101E04FF031014FF001088DF891
:1010D000001002D0A6F2FF3603E059EA470100D023
:1010E0006A4E002D02DC2178090704D54FF0020872
:1010F0002E218DF80110C44600210BE0C7F30343F5
:101100003F01C35C491C6D1E02F80830052908F137
:10111000010801DA002DF1DC00210CE000EB19736D
:10112000491C1B786D1E082902F808304FEA09197E
:1011300008F1010801DA002DF0DC2178890602D5DA
:1011400014E0A8F10108E04505DD02EB080111F803
:10115000011C3029F5D0B8F1000F07DD02EB0801C2
:1011600011F8011C2E2901D1A8F10108002D05DD7F
:101170003E2102F808106D1E08F10108407C002E87
:1011800002F8080008F1010804DA2D20764202F87E
:10119000080002E02B2002F808000A214FF47A70C0
:1011A000864208F101080BDB96FBF0F3303302F8BE
:1011B000083096FBF0F308F1010800FB136601E02C
:1011C000642E0CDB642096FBF0F3303302F8083019
:1011D00096FBF0F308F1010800FB136601E00A2E0C
:1011E00006DB96FBF1F0303002F8080008F1010848
:1011F00096FBF1F001FB1060303002F80800A169A5
:1012000008F1010808EB050202EB0A00081AA061C8
:101210002078C00602D42046FFF75AF9216A08AEAA
:1012200001EB0A00206204E0D4E9012116F8010B69
:101230009047BAF1010AF7D22078C00602D52046BD
:10124000FFF746F96E4609E016F8010B3E280FD06D
:10125000D4E901219047206A401C2062B8F10108BE
:10126000F2D22046FFF74AF909B00320BDE8F08F1B
:10127000206A2844206203E0D4E90121302090470D
:101280006D1EEBD3F8E7000013CE000002FCFFFF59
:1012900010B5436913B1AFF3008001E0FFF751F9D6
:1012A000012010BD127800F124010A7000224A705A
:1012B0000122EDE711684FF0FF32E9E710B543690D
:1012C00013B1AFF3008001E0FFF7D2F9012010BDA8
:1012D000128800F1240182840022C2840122EDE7F9
:1012E00011684FF0FF32E9E770B516460C46054627
:1012F00000F044F8036893F80101012806D0FF2CA0
:101300000FD8185D68B101202C7070BDD3F80701AB
:101310003246214603F2071303442846BDE87040D5
:1013200018474FF0FF3070BD00487047AC1A0020DE
:101330007546FFF7F9FFAE4605006946534620F0B3
:101340000700854618B020B5FEF7F2FFBDE8204043
:101350004FF000064FF000074FF000084FF0000B71
:1013600021F00701AC46ACE8C009ACE8C009ACE824
:10137000C009ACE8C0098D467047000010B500F008
:1013800005F8001D10BD00BF15B7000000487047EC
:10139000CC1A00202DE9F0411F46044603260168BF
:1013A000072A01F4006004DB08B116A505E016A5C4
:1013B00003E008B115A500E015A521F0100020609C
:1013C000A069C01EA0610FB1401EA0612046FFF7BA
:1013D0007FF84FB1D4E9012138469047206A401C7C
:1013E0002062C01C206206E0206AFAE7D4E90121ED
:1013F00015F8010B9047761EF8D22046FFF77EF8CD
:10140000BDE8F0814E414E006E616E00494E4600CF
:10141000696E66002DE9F047814616468AB033486A
:1014200078440DC88DE80D0030487844801C03AC2A
:101430000DC884E80D0041F69B300844372190FB2D
:10144000F1F290FBF1F5A5F1800501FB12041B3CC4
:1014500002D56442012000E00020DFF890A0804621
:101460000027FA44AAF1BE0A0DE0E00709D032468F
:10147000684607EB47010AEB810100F00FFB8DE89E
:10148000070064107F1C002CEFD1184F7F44AC3F45
:1014900018E0E80714D007EB04100DF1180A90E8E3
:1014A0000E008AE80E00C068F04201D19819089039
:1014B000324606A903A800F0F1FA03AB83E807005F
:1014C0006D10641C002DE4D132466946B8F1000F5E
:1014D00003A802D000F0CEFA01E000F0DFFAC9E97B
:1014E0000001C9F808200AB0BDE8F08720CB000051
:1014F00010B50446AFF300802046BDE81040FEF76B
:1015000002BF00004FF0013C50F8042B51F8043B9F
:101510009A4221D1A2EB0C03934313EACC1317D1C7
:1015200050F8042B51F8043B9A4215D1A2EB0C035E
:10153000934313EACC130BD150F8042B51F8043B1E
:101540009A4209D1A2EB0C03934313EACC13DBD0EC
:101550004FF00000704700BFD01A01BAB1FA81F114
:1015600001F0180122FA01F0CB40C1F12001DBB2F9
:10157000C0B2C01A2CFA01F3D11A914311EAC31177
:10158000E6D1704701491820ABBEFEE726000200F5
:1015900070475FEA400C08BF91F0000F4FEA8C23C0
:1015A0004FEAC12243EA51514FEA1C5018BF00F5DF
:1015B000F0404FEA300018BF41F000415FEA6C5C38
:1015C00000F02980BCF1FF3F08BF40F08040704729
:1015D000130C06BF12044FF0100C4FF0000C130E4A
:1015E00004BF12020CF1080C130F04BF12010CF11E
:1015F000040C930F04BF92000CF1020CD30F04BF34
:1016000052000CF1010C11464FF00002A0F11F0036
:10161000A0EB0C00704711F0004F08BF704731F08D
:1016200000413FF4D5AF0B0C06BF09044FF0100C7E
:101630004FF0000C0B0E04BF09020CF1080C0B0F4D
:1016400004BF09010CF1040C8B0F04BF89000CF1DD
:10165000020CCB0F04BF49000CF1010CCCF12003AC
:10166000A0EB0C0022FA03F302FA0CF241EA0301A8
:1016700000F10100704720F07F4C80EA030023F066
:101680007F47ACEB070303F57C5300F0004003F108
:10169000FF032DE980494FEA154B09B44FEA144383
:1016A00025EA0B4E24EA03480FF2042606EB132723
:1016B00049083E785FEA320203FB0667C7F5000778
:1016C00007FB06F64FEA54374FEAD64606F1020604
:1016D00007FB066CCCF1005C4FEA1C472CEA074C78
:1016E00007FB06F40CFB06F504EB15464FEA9616CD
:1016F00034BF00204FF000404FEAD13706FB07FC13
:101700004FEA1C4C0CFB0BF7D21B03FB0CF761EBF5
:1017100007010CFB0EF7B0EB074072EB17420CFB16
:1017200008F734BFA2EB0742B2EB074261EB174167
:101730004FEA0C444FEA910706FB07FC4FEA1C4CAA
:101740000CFB0BF7B0EBC74072EB573203FB0CF707
:1017500034BFA2EBC742B2EBC74261EB57310CFB7F
:101760000EF7B0EBC70072EB57720CFB08F734BFF3
:10177000A2EBC702B2EBC70261EB5771039F4FEABE
:10178000816141EA921104EBCC044FEAD1374FEA70
:10179000826206FB07FC42EA90124FEA80604FEA41
:1017A0001C4C0CFB0BF7D21B03FB0CF761EB070186
:1017B0000CFB0EF7B0EB074072EB17420CFB08F77F
:1017C00034BFA2EB0742B2EB074261EB17414FEA8D
:1017D0008C554FEA910704EB9C2406FB07FC4FEA6B
:1017E0001C4C0CFB0BF7B0EBC74072EB573203FB02
:1017F0000CF734BFA2EBC742B2EBC74261EB5731E3
:101800000CFB0EF7B0EBC70072EB57720CFB08F73E
:1018100034BFA2EBC702B2EBC70261EB577115EB05
:101820004C254FEA816141EA92114FEA82624FEA08
:10183000D13742EA901206FB07FC44F100044FEA5C
:1018400080604FEA1C4C0CFB0BF7D21B03FB0CF720
:1018500061EB07010CFB0EF7B0EB074072EB174290
:101860000CFB08F734BFA2EB0742B2EB074261EB77
:10187000174115EB1C154FEA813141EA92414FEABD
:10188000823242EA90424FEA80304FEA0C7644F1CD
:10189000000448EA03434EEA0B484FF0000EB2EB57
:1018A000080C71EB030724BF624639464EEB0E0E5F
:1018B0004FF0000B0018524149414BEB0B0BB2EBC0
:1018C000080C71EB03077BF1000B24BF624639461D
:1018D0004EEB0E0E4FF0000B0018524149414BEBFE
:1018E0000B0BB2EB080C71EB03077BF1000B24BF71
:1018F000624639464EEB0E0E51EA020718BF46F01B
:10190000010616EB0E7655F1000254F1000103D5E5
:10191000BDE88901BDE80088BDE88901BDE800484F
:10192000B619524141EB0101A3F1010370478080D8
:101930007F7E7D7C7B7A7978777676757473727129
:1019400071706F6E6E6D6C6C6B6A6A6968686766E1
:1019500066656464636362616160605F5F5E5E5D73
:101960005D5C5C5B5B5A5A595958585757565655E7
:1019700055555454535352525251515050504F4F49
:101980004F4E4E4D4D4D4C4C4C4B4B4B4A4A4A4999
:1019900049494848484747474746464645454544DC
:1019A0004444444343434342424242414141002B69
:1019B00026D4770021D01CB54FEA370703B44FF087
:1019C00010004FF010014FF000000FBCBDE81040B8
:1019D0000BF1010BBBF1010F08BF5FEA170722BF34
:1019E00012F1010211F101014FF0004143F1000336
:1019F00000F0004043EA00007047F9D35708DAE7E7
:101A000046EA064613F1400F4FEA16461FDD13F172
:101A1000200FDFBF16430A46002120335B42C8D0A7
:101A2000C3F1200746EA064602FA07F74FEA1646D0
:101A300046EA0706C3F1200722FA03F201FA07F784
:101A400021FA03F14FF0000342EA0702B1E746EA48
:101A5000020646EA06464FEA164646EA0106BCBFBB
:101A600046EA0646360C4FF000034FF000024FF0F6
:101A700000019EE72DE9C048934630B491E8380054
:101A800007C831EA400C48BF34EA430C03D5FFF7DE
:101A9000F2FDFFF78CFFF0BCBDE800882DE9C048DF
:101AA000934630B491E8380007C810F0804F08BF63
:101AB00013F0804F03D100F005F8FFF778FFF0BC7A
:101AC000BDE8008820F07F4780EA030023F07F4CC8
:101AD00007EB0C03A3F57C5300F00040A3F1FE03D9
:101AE00092F0000F00F0B38095F0000F00F07780C7
:101AF0002DE901494FEA11404FEA144621EA004816
:101B000000FB06FC24EA064708FB06F607FB08F87C
:101B100000FB07F718EB06484CEB164C4FEA124B4C
:101B200018EB07484FEA15464CEB174022EA0B4EDC
:101B30000BFB06FC25EA06470EFB06F607FB0EFE2E
:101B40000BFB07F71EEB064E4CEB164C4FF0000656
:101B50001EEB074E4CEB174B18EB0B0840F1000047
:101B600018EB0E0B58EB000840F100008F1A4FF0F5
:101B700000013CBFC943661B14BFB5EB040C002138
:101B80003CBFC943F61B4FEA17444EEA8E0E27EAC4
:101B900004454FEA1C4704FB07622CEA074C05FB8F
:101BA00007F70CFB05F604FB0CFC16EB074642EBB3
:101BB000174216EB0C4642EB1C421BEB060658EB99
:101BC0000202414146EA9E0601D5BDE80189B619E7
:101BD000524141EB0101A3F10103BDE801894FEA44
:101BE00014454FEA114724EA054621EA074C05FB54
:101BF00007F406FB07F70CFB06F105FB0CFC11EBE9
:101C0000074144EB17444FEA124711EB0C4144EBF8
:101C10001C4422EA074C05FB07F206FB07F70CFB06
:101C200006F605FB0CFC16EB074642EB174216EBDB
:101C30000C4642EB1C456A1854F1000148BF70473E
:101C4000B619524141EB0101A3F10103704795F030
:101C5000000F37D04FEA11424FEA144721EA0246FB
:101C600024EA074C02FB07F106FB07F70CFB06F41E
:101C700002FB0CFC14EB074441EB17414FEA1547FC
:101C800014EB0C4441EB1C4125EA074C02FB07F521
:101C900006FB07F70CFB06F602FB0CFC16EB0746EF
:101CA00045EB174516EB0C4645EB1C42121951F15A
:101CB000000148BF7047B619524141EB0101A3F141
:101CC000010370474FEA14454FEA114724EA0546DD
:101CD00021EA074C05FB07F106FB07F70CFB06F2B0
:101CE0004FF0000605FB0CFC12EB074241EB1741DD
:101CF00012EB0C4251EB1C4148BF7047921841EB6C
:101D00000101A3F10103704770B505460C46084870
:101D10000560204600F00EF800BF05480068002866
:101D2000FBD100214FF0804003F011FE70BD000098
:101D3000140100203EB5044600214FF0804003F01E
:101D400006FE00220121880703F01EFE022C02D1AC
:101D50000B20019004E0012C02D142F6DF600190DB
:101D60000520ADF800000020ADF80800ADF8020035
:101D700069464FF0804003F011FE0121880703F00F
:101D8000E3FD0121880703F0D3FD012211469007EE
:101D900003F0FAFD0121880703F0D9FD3EBD0000E4
:101DA0002DE9F041684800780C287DD2DFE800F08A
:101DB000060E151E2531515D899AA1AD4FF47A703A
:101DC00062490860012060490870B9E05F48006816
:101DD00010B902205C490870B2E001F0B9FA642041
:101DE0005A490860032058490870A9E0574800681C
:101DF00010B9042054490870A2E002220E21544870
:101E000001F088F864205149086005204E490870A7
:101E100096E04E480068D8B94D4804784FF6FF70F8
:101E200000EA04244A484078204484B22546A5F5B7
:101E3000FE45FF3D4FF4166105FB01F0C11700EBB5
:101E40005141CD1328B24349488006203E490870CD
:101E500076E0022208213E4801F05CF864203B490C
:101E600008600720384908706AE03848006818BBE5
:101E7000374804784FF6FF7000EA0424344840786D
:101E8000204484B2274645F6304078434FF6FF7130
:101E9000B0FBF1F72F490F800846008842F6E06159
:101EA00088420ADD2B4800E046E0B0F902006428D1
:101EB00003DA08202449087002E00A202249087049
:101EC0003EE0272022490870102048700222114667
:101ED0001F4801F011F964201C49086009201A49C3
:101EE000087000BF1948006810B90A201649087028
:101EF00000BF02221146164801F00CF86420134975
:101F000008600B20104908701AE01048006890B96A
:101F10000F4804784FF6FF7000EA04240C4840781C
:101F2000204484B226466420B6FBF0F0094988803C
:101F300004200549087003E000200349087000BF31
:101F400000BFBDE8F0810000EA0000200C00002086
:101F5000A40A0020E400002000BFFEE728484089D2
:101F60002749488008464088642801DD642048806D
:101F7000234880892249888008468088642801DABD
:101F8000642088801E488088B0F5967F03DD4FF47A
:101F900096701B4988801B48B0F90200002803DDB9
:101FA0000620174908802AE0164880885A2803DD51
:101FB00005201349088022E0124880884B2803DD61
:101FC00004200F4908801AE00E4880883C2803DD71
:101FD00003200B49088012E00A4880882D2803DD81
:101FE0000220074908800AE0064880881E2803DD91
:101FF00001200349088002E0002001490880704761
:1020000000080020E400002070B500254FF4803463
:1020100000E0641E24B1802001F058FE0028F8D0B2
:1020200014B90325284670BD40F2FF5001F00AFEA6
:102030002846F8E72DE9F04106460027484805689C
:1020400001E04748056805F045000028F9D005F093
:10205000040030B10327042001F0F4FD3846BDE848
:10206000F08105F0010028B10127012001F0EAFD0F
:102070003846F4E701F024FEB04202D0102738467B
:10208000EDE740F2FF5001F0DDFD002001F03EFEE3
:1020900004463448204008B93846E0E704F00040E0
:1020A00008B11C20DBE704F0804008B10920D6E726
:1020B00004F0005008B10A20D1E704F0805008B1C4
:1020C0000B20CCE704F0006008B10C20C7E704F057
:1020D000806008B10D20C2E704F0807008B10E20C6
:1020E000BDE704F4000008B10F20B8E704F4800055
:1020F00008B11020B3E704F4001008B11120AEE7D6
:1021000004F4801008B11220A9E704F4002008B1FB
:102110001320A4E704F4802008B114209FE704F4FE
:10212000003008B115209AE704F4803008B1162079
:1021300095E704F4004008B1172090E704F48040CC
:1021400008B118208BE704F4005008B1192086E785
:1021500004F0080008B11A2081E738467FE7000044
:10216000342C014008E0FFFD70B5002510480468DC
:1021700001E00F48046804F045000028F9D004F09D
:10218000040028B10325042001F05CFD284670BD41
:1021900004F0010028B10125012001F053FD28467B
:1021A000F5E740F2FF5001F04DFD2846EFE7000053
:1021B000342C014070B500250B48046801E00A4842
:1021C000046804F045000028F9D004F0040028B1A8
:1021D0000325042001F036FD284670BD40F2FF5073
:1021E00001F030FD2846F8E7342C01402DE9F0419C
:1021F00006460F464FF000082248056801E02148D6
:10220000056805F045000028F9D005F0040038B154
:102210004FF00308042001F015FD4046BDE8F081B1
:1022200005F0010030B14FF00108012001F00AFD76
:102230004046F3E701F044FDB04203D04FF01008F0
:102240004046EBE740F2FF5001F0FCFC002001F0BB
:102250005DFD044604F4604018B9200C3880404607
:10226000DCE704F4005008B11320D7E704F4804001
:1022700008B11020D2E704F4004008B10F20CDE7E8
:102280004046CBE7342C014070B500264FF4803532
:102290000F48046802E06D1E0D48046804F0450014
:1022A00008B9002DF7D115B104F0040028B10326B8
:1022B000042001F0C7FC304670BD04F0400028B196
:1022C0000026402001F0BEFC3046F5E73046F3E73B
:1022D000342C014010B502F0ADFA10BD0246094B96
:1022E0009A4201D2084801E00648103801F0005334
:1022F0001BB1064B0B40C36002E0044B0B408360F4
:102300007047000010640240006002407D0F7D0FA6
:1023100021B1026842F00102026003E0026822F08B
:102320000102026070470000016821F001010160B4
:102330000021016041608160C16001612121416132
:102340004A49884204D13D21484A103A91608CE0C4
:1023500046491831884205D14FF47461434A103A16
:10236000916082E041493031884205D14FF47411C7
:102370003E4A103A916078E03C494831884205D1A4
:102380004FF07461394A103A91606EE0374960311C
:10239000884204D13649354A103AD16065E0334964
:1023A0007831884204D13349304A103AD1605CE038
:1023B0002E499031884204D12F492C4A103AD160DD
:1023C00053E02A49A831884205D14FF03D51274AB0
:1023D000103AD16049E02949884204D13D21274A79
:1023E000083A116041E025491831884205D14FF47F
:1023F0007461224A083A116037E02049303188423E
:1024000005D14FF474111D4A083A11602DE01B49A3
:102410004831884205D14FF07461184A083A11607A
:1024200023E016496031884204D11149134A121F32
:1024300011601AE011497831884204D10D490F4AE0
:10244000121F116011E00D499031884204D10A49F0
:102450000A4A121F116008E00849A831884204D1D5
:102460004FF03D51054A121F116070471060024045
:102470003D000020400F002000003D20106402407D
:1024800021B1026842F02002026003E0026822F0FB
:1024900020020260704710B501F080034BB122B1F9
:1024A000436943F08003436103E0436923F0800301
:1024B000436180290BD02AB1036801F01E04234335
:1024C000036004E0036801F01E04A343036010BD31
:1024D00010B500220268134B1A40CC680B682343E6
:1024E0004C6923438C692343CC6923430C6A2343FF
:1024F0004C6A23438C6A23434C6B23438C6B2343EA
:102500001A430260426922F00702D1E90B342343E7
:102510001A4342610B6943604B6883608B68C360F8
:1025200010BD00003F801CF0704700002DE9F84FFF
:1025300006461E4CA078C01C00F0FF09A078801E43
:10254000C1B2E01C00F063FB8246A9F10200205CEE
:102550000AF0FF01884225D1A9F10100205CB0EB0F
:102560001A2F1FD1E07883281CD1E51DA079009097
:102570004FF0000811E015F8010B4FF6FF7101EA6A
:10258000002B15F8011B01EB0B001FFA80FB26F84E
:1025900002BB08F1010000F0FF0800988045EADB6B
:1025A000012700E000273846BDE8F88FEF0900203A
:1025B0002DE9F04F0546194CA078C01C00F0FF092A
:1025C000A078801EC1B2E01C00F021FB8246A9F178
:1025D0000200205C0AF0FF0188421AD1A9F1010033
:1025E000205CB0EB1A2F14D1E078812811D194F837
:1025F00005B0A71D4FF0000807E017F8010B05F81C
:10260000010B08F1010000F0FF08D845F5DB0126B9
:1026100000E000263046BDE8F08F0000EF09002002
:1026200010B5044802780449032007F04FF8044627
:10263000204610BDBA000020BC08002010B5094A91
:1026400013781278521C074C2270074A22F81300A4
:10265000224613781278521C2270034A22F8131073
:1026600010BD0000BA000020BC08002010B5524880
:1026700000780D2871D2DFE800F0070F161D242D19
:10268000344871787E8592004FF47A604B49086037
:102690000120494908708DE04848006810B90220BF
:1026A0004549087086E000F069FE10B903204249F0
:1026B00008707FE000F0D6FA10B904203E49087097
:1026C00078E000F0C3FA20B901F026F805203A4975
:1026D00008706FE001F01CFA10B906203649087046
:1026E00068E03748408901280BD130223549364807
:1026F000FDF742FE02203049087000203049488131
:1027000002E007202C49087054E02D48008940F26F
:102710005741884205D10F202C49088000202849C4
:1027200008812B48008830B928480088284908804B
:102730000020264908802648008838B124480088AF
:1027400003F081F810B90020214908802048008852
:1027500010B90820184908702CE027E000F08EFA24
:1027600010B909201449087024E0FFF7F7FB0A208C
:10277000114908701EE006F089FF10B90B200E49C0
:10278000087017E0FFF74CFF40B9002011490870AE
:10279000C8200A4908600C20074908700AE0074869
:1027A000006810B903200449087003E000200249C2
:1027B000087000BF00BF10BDCB0000200800002043
:1027C000300800207008002040080020B8000020D9
:1027D000CC000020BA0000202DE9F04305468946D0
:1027E00016460E4C4FF009085A202070A520607044
:1027F0000620A0708320E070281220716571A671F8
:10280000A078801EC1B2E01C00F001FA0746E77113
:10281000381220724046BDE8F08300008409002091
:102820002DE9F0430546894616460D4C4FF0080841
:102830005A202070A52060700520A0708120E070D3
:1028400025716671A078801EC1B2E01C00F0DFF92E
:102850000746A7713812E0714046BDE8F0830000DA
:10286000840900202DE9F74F88461546184C0720AB
:1028700000EB4500C6B25A202070A5206070F01E03
:10288000A0708420E07000982071671D4FF0000B4D
:102890000BE038F802AB4FEA2A2007F8010B07F8E3
:1028A00001AB0BF1010000F0FF0BAB45F1DBA078B1
:1028B000801EC1B2E01C00F0AAF98146B01E04F8E7
:1028C00000904FEA2921701E21543046BDE8FE8F4A
:1028D000840900202DE9F84F8046894615461B4C97
:1028E000082000EB4500C6B25A202070A520607079
:1028F000F01EA0708220E0704FEA2820207184F83A
:102900000580A71D002000900BE039F802BB4FEABC
:102910002B2007F8010B07F801BB0098401CC0B240
:1029200000900098A842F0DBA078801EC1B2E01CA5
:1029300000F06DF98246B01E04F800A04FEA2A218B
:10294000701E21543046BDE8F88F00008409002035
:102950002DE9F04107460E460F4C09255A202070FC
:10296000A5206070E81EA0708020E07027713012F2
:102970006071A671A078801EC1B2E01C00F047F91A
:102980008046A81E04F800804FEA2821681E2154C2
:102990002846BDE8F0810000840900202DE9FC41B3
:1029A00007460D46002600240020009001900820D4
:1029B0005B49086010204860402088600020C860A3
:1029C0004FF480600861084601F0DEF91020FFF73F
:1029D00031FB044614B12046BDE8FC815148008813
:1029E00000044F490860372048604020886000207C
:1029F000C8604FF480600861084601F0C5F93720CF
:102A0000FFF718FB04460CB12046E5E74FF0FF3016
:102A10004549086008204860302088600220C8606E
:102A20000020086101204861084601F023F90020D8
:102A30003B49086033204860402088600020C8601F
:102A40004FF480600861084601F09EF93320FFF7DB
:102A5000F1FA04460CB12046BEE709E04FF400103D
:102A600001F034F920B101F089F94DF82600761C07
:102A70002E48006840F22A6108400028EED0082065
:102A800001F024F928B1082001F0DCF804242046E4
:102A9000A2E7022001F01AF928B1022001F0D2F8D1
:102AA0000224204698E7202001F010F928B12020C8
:102AB00001F0C8F8062420468EE74FF4007001F0BC
:102AC00005F930B14FF4007001F0BCF8072420463E
:102AD00082E740F2FF5001F0B5F800980006009937
:102AE00001F47F4140EA0120009901F47F0140EAAE
:102AF0001120009940EA1160686001980006019970
:102B000001F47F4140EA0120019901F47F0140EA8C
:102B10001120019940EA1160286020465CE700001E
:102B2000D00B0020FC000020E40B0020342C0140DE
:102B3000F0B50A4600210023002400BF3DE0012536
:102B400005FA01F3156805EA03049C4234D10568CF
:102B50004F000326BE40B543056015794E00B540D1
:102B60000668354305601579012D02D01579022DCF
:102B700016D185684F000326BE40B5438560557960
:102B80004E00B540866835438560456801268E4015
:102B9000B5434560456896798E40B6B23543456089
:102BA000C5684F000326BE40B543C560D5794E00C9
:102BB000B540C6683543C560491C1029BFD3F0BD78
:102BC000F0B5002300244D07ED0E02FA05F3CE10F8
:102BD00000F1200555F826504E07F70E0F26BE408F
:102BE000B543CF1000F1200646F82750CE1000F173
:102BF000200555F8265045EA0304CE1000F12005C3
:102C000045F82640F0BD418370470183704730B5D9
:102C100002460B464FF6FF7011E014786040002129
:102C20000AE000F0010424B140104AF201046040BF
:102C300000E040104C1CE1B20829F2DB521C1C1EC3
:102C4000A3F10105EBB2E8D130BD000010B50822B8
:102C50000349002000F06AFE0446204610BD000033
:102C60002008002010B518220349202000F05EFE45
:102C70000446204610BD00004008002010B5072281
:102C80003349202000F0C0FE0446072C5ED13220DC
:102C90002F49C87130212E480172007801EB2011B4
:102CA0002B484172007800F00F00303028498872BC
:102CB0002D212748C1724078302101EB2011244892
:102CC0000173407800F00F003030214948732D2106
:102CD0001F4881738078302101EB20111C48C1739B
:102CE000807800F00F00303019490874202118480E
:102CF00041740079302101EB20111548817400796D
:102D000000F00F0030301249C8742D2110480175B1
:102D10004079302101EB20110D484175407900F0D8
:102D20000F0030300A4988752D210948C175807916
:102D3000302101EB201106480176807900F00F0068
:102D4000303003494876002101488176204610BD85
:102D5000A008002001464869806880B2704708B525
:102D60000146D1F8CC00006800900098C0F34140C3
:102D700008BD024602F29B30405C7047024602F5F5
:102D8000547050F82100704770B504460E46002577
:102D90000021C4F8101300BF0BE0002104F54570BA
:102DA00040F825103C3040F825103C304155681C57
:102DB000C5B20F2DF1DB0821A4F8B213314620462D
:102DC00005F0C8FC204605F0CFF8204604F08EFF41
:102DD0000121204605F02AFD204605F020F8204676
:102DE00005F01BF9002070BD0146D1F810037047B3
:102DF00010B50446204605F08CFC002010BD70B5CF
:102E000004460D46002104F29B304155113000EB81
:102E1000451041612946204605F02AFB70BD00BFE0
:102E2000FEE7000010B50348C06810B10149C8684A
:102E3000804710BD940A002000B587B001214805E5
:102E400000F0C0FC0121022000F0ACFC012188034D
:102E500000F0D8FC00212C4800F08EF92A4800F040
:102E600097F9042208212948FFF7AAFE0422092124
:102E70002648FFF7A5FE4FF48070019002208DF8E0
:102E800008008DF8090001208DF80A008DF80B006C
:102E900001A91E48FFF74CFE4FF40070019001A9F4
:102EA0001A48FFF745FE00224FF4C061164800F0B3
:102EB000C4F90020ADF810004BF6FF70ADF8120019
:102EC0003020ADF814004FF48060ADF8160000011A
:102ED000ADF818000E48039003A90B4800F0B6F9AE
:102EE0001F208DF8000002208DF801008DF80200EF
:102EF00001208DF80300684600F076FB01210248AE
:102F000000F03AF907B000BD005400400004024050
:102F1000A086010070B505460E4614460DB9002086
:102F200070BD0CB90020FBE71248007808B1002002
:102F3000F6E701200F490870C82088700846C6705F
:102F400000208880012048700846C48085600A48B7
:102F5000C86001224FF4C061084800F06EF90121F9
:102F6000064800F0FDF80121044800F041F9204630
:102F7000D6E70000940A00203130000800540040D9
:102F800010B5284800F04CF96FF44031084420B1E6
:102F9000012809D03F2843D115E023488178012238
:102FA000204800F0CBF93BE01F488188C088401ED4
:102FB000814207D100211B4800F0D2F801211948B5
:102FC00000F022F92CE0174800F0B4F916498C887B
:102FD000611C154A91801146896808551046818800
:102FE000C088401E814208D100210E4800F0B8F888
:102FF00001210C4800F008F911E00B4880880A49CB
:10300000C98888420BDB09480749C86000224FF491
:10301000C061044800F011F900200349087000BFA6
:1030200000BF10BD00540040940A00203130000859
:1030300010B52E4800F0F4F86FF44031084440B168
:10304000A0F580207F3888B1022809D004284BD110
:1030500028E0274881780022244800F06FF943E0F7
:103060002348C178214800F071F93DE0204880886C
:103070001F49C98888420EDA1D48407858B91C4853
:103080008488601C1A4A908010468068015D174849
:1030900000F05CF905E000224FF48061134800F075
:1030A000CCF821E01248407860B112481049C8605D
:1030B000012291020D4800F0C0F801210B4800F0F8
:1030C00097F810E000224FF4C061084800F0B5F80E
:1030D0000021064800F044F80121044800F094F86B
:1030E00000200349087000BF00BF10BD005400401D
:1030F000940A0020812F000870B505460E4614463C
:103100000DB9002070BD0CB90020FBE71148007814
:1031100008B10020F6E701200E490870C820887029
:103120000846C6700020888048700846C4808560C4
:103130000948C86001224FF4C061084800F07DF8DA
:103140000121064800F00CF80121044800F050F875
:103150002046D7E7940A0020313000080054004090
:1031600021B1028842F48062028004E002884FF6B6
:10317000FF331A400280704721B1028842F00102F9
:10318000028004E002884FF6FE731A400280704706
:1031900010B504461348844209D10121480500F0C6
:1031A00021FB00214FF4001000F01CFB18E00E483A
:1031B000844209D10121880500F014FB00214FF45D
:1031C000800000F00FFB0BE00848844208D1012189
:1031D000C80500F007FB00214FF4000000F002FBDF
:1031E00010BD00000054004000580040005C00404A
:1031F00021B1028842F48072028004E002884FF616
:10320000FF631A400280704721B1028842F40072C5
:10321000028004E002884FF6FF531A400280704794
:1032200010B501460020002300228B8A0A8B12046D
:1032300043EA020424F07F4010BD1AB183880B4397
:10324000838002E083888B43838070472DE9FF47AA
:1032500004460D460026B1460427DFF8CC80A68838
:103260004FF6C0700640684600F0ECFADDF80880C2
:103270002E48B8FBF0F01FFA80F946EA0906A6804E
:1032800020884FF6FE7108402080002628492868D3
:1032900088420CD828684000B8FBF0F087B2042FB1
:1032A00000DA04273E4309F10100208427E0E88882
:1032B0004BF6FF71884206D1286800EB4000B8FB4E
:1032C000F0F087B209E0286800EBC00101EB0010C4
:1032D000B8FBF0F087B247F48047C7F30B0008B99A
:1032E00047F0010747F4004006434FF4967009FB8E
:1032F00000F04FF47A7190FBF1F0401C2084A6831B
:10330000208840F00100208026884FF6F5300640E6
:10331000A8886989084306432680A8892989084323
:103320002081BDE8FF87000000127A0040420F00B4
:10333000A08601000146088AC0B2704712B141F070
:10334000010101E001F0FE01018270470182704736
:103350002DE9F041802430250427002644EA0500A9
:103360003843304304490870012211460248FFF7F0
:10337000C3FEBDE8F0810000A40A002010B51822A9
:103380000349202006F00CFA0446204610BD000038
:103390004008002030B500BF154800684FF47A722D
:1033A000B0FBF2F1481EB0F1807F01D301201BE099
:1033B000481E4FF0E022506150170F22002807DA14
:1033C00013071D0E0B4B00F00F04241F1D5503E0C7
:1033D00013071C0E084B1C5400BF00204FF0E022C6
:1033E00090610720106100200028D5D130BD000079
:1033F0001C00002018ED00E000E400E01FB50121F2
:10340000880400F0DFF94FF4E13000900020ADF8BF
:103410000400ADF80600ADF80800ADF80C000C2073
:10342000ADF80A006946044802F050FC0121024848
:1034300002F096FB1FBD0000004800401CB50121B2
:10344000082000F0AFF94FF48070009002208DF852
:10345000040000208DF805008DF8060001208DF88D
:10346000070069460D48FFF763FB4FF400700090BA
:1034700002208DF8040001208DF8070069460748F6
:10348000FFF756FB072208210448FFF799FB0722A4
:1034900009210248FFF794FB1CBD0000000C02400C
:1034A00008B527208DF8000003208DF801008DF865
:1034B000020001208DF80300684600F095F808BD71
:1034C0001FB50121202000F09DF94FF4E13000905C
:1034D0000020ADF80400ADF80600ADF80800ADF826
:1034E0000C000420ADF80A006946044802F0EEFB27
:1034F0000121024802F034FB1FBD0000001401400E
:103500001CB50121042000F04DF90121042000F038
:1035100049F94020009002208DF8040000208DF829
:1035200005008DF8060001208DF807006946174850
:10353000FFF7FEFA8020009002208DF804000120A1
:103540008DF8070069461148FFF7F2FA2020009035
:1035500001208DF8040000208DF805008DF806008C
:1035600002208DF8070069460848FFF7E1FA20219C
:103570000648FFF748FB082206210448FFF720FB16
:10358000082207210148FFF71BFB1CBD0008024071
:1035900008B547208DF8000003208DF801008DF854
:1035A000020001208DF80300684600F01DF808BDF8
:1035B00002460A490B785A2B0DD14B78A52B0AD11C
:1035C0008B78022B07D1CB78934204D10B79FF2B58
:1035D00001D1012000E0002070470000E809002030
:1035E00000BFFEE77047000070B5002100230F22E6
:1035F000C4781CB3174C246804F4E064C4F5E06498
:10360000C4F30721C1F10404E3B20A4144789C40A9
:10361000E1B28478144021430C07210E0E4C05784A
:103620006155047804F01F050124AC4005786D1144
:10363000AD0005F1E025C5F8004109E0047804F08B
:103640001F050124AC40054D0678761145F826404B
:1036500070BD00000CED00E000E400E080E100E05F
:1036600002490143024A1160704700000000FA0558
:103670000CED00E0F0B514462246661E31440025EC
:103680000FE00A2690FBF6F706FB1706303601F826
:1036900001690A2690FBF6F6B0B2561EB2B26E1C55
:1036A000B5B29D42EDDB23B12E2601F80169561E0D
:1036B000B2B20A2690FBF6F706FB1706303601F881
:1036C00001690A2690FBF6F6B0B2561EB2B20DE0C2
:1036D0000A2690FBF6F706FB1706303601F801695B
:1036E0000A2690FBF6F6B0B2561EB2B20028EFD111
:1036F00002E0202601F80169161EA2F10107BAB204
:10370000F7D1F0BD10B5024803F070FE10BD000007
:10371000540200207047000020488088012804D10E
:103720001F49888000201D4988801C48C0880128C6
:1037300004D11B49C88000201849C8801748408818
:10374000012804D1164948800020144948801348B4
:10375000008930B1114800891149088100200F49C2
:1037600008810E484089012804D10D494881002074
:103770000A49488109488089012804D1084988817B
:103780000020064988810548C089012804D10449E0
:10379000C88100200149C88170470000200800202E
:1037A0003008002029B1064A12680243044B1A600F
:1037B00004E0034A12688243014B1A60704700001C
:1037C0003038024029B1064A12680243044B1A609D
:1037D00004E0034A12688243014B1A6070470000FC
:1037E0004038024029B1064A12680243044B1A606D
:1037F00004E0034A12688243014B1A6070470000DC
:103800002038024029B1064A12680243044B1A606C
:1038100004E0034A12688243014B1A6070470000BB
:103820004438024029B1064A12680243044B1A6028
:1038300004E0034A12688243014B1A60704700009B
:1038400024380240F0B50021002200240225002681
:103850000223324F3F6807F00C0121B1042905D043
:10386000082937D105E02E4F076036E02D4F07605D
:1038700033E02A4F3F1F3F68C7F38056274F3F1F53
:103880003F6807F03F036EB1264FB7FBF3F7DFF851
:103890008CC0ACF1040CDCF800C0CCF3881C07FB36
:1038A0000CF40CE01E4FB7FBF3F7DFF870C0ACF17F
:1038B000040CDCF800C0CCF3881C07FB0CF4174F99
:1038C0003F1F3F68C7F301477F1C7D00B4FBF5F73E
:1038D000076002E0124F076000BF00BF0F4F3F6854
:1038E00007F0F0010909104F7A5C0768D74047607C
:1038F0000A4F3F6807F4E051890A0B4F7A5C47682A
:10390000D7408760054F3F6807F46041490B064F79
:103910007A5C4768D740C760F0BD000008380240B5
:103920000024F40040787D01B10100202DE9F04130
:1039300005460C46164630480078082853D2DFE882
:1039400000F0040B1B2A3C3B4D4E00202B49087015
:103950000120294908704AE0324621462846FEF7F0
:103960003BFF0746384601F00BFF642024490860FE
:103970000220214908703AE022480078012803D14A
:1039800003201D49087005E01D48006810B9042097
:10399000194908702BE00520174908708320FFF7AC
:1039A00007FE012807D12046FEF7C0FD012802D1FD
:1039B0000720114908701AE000BF1048007803285A
:1039C00008DA0E480078401C0C49087001200A49AA
:1039D000087002E006200849087008E000BF0020D7
:1039E0000549087003E000200349087000BF00BFCC
:1039F00001480078BDE8F081C9000020CA0000201D
:103A000004000020BE0000202DE9F04105460C46D0
:103A1000164630480078082853D2DFE800F0040B3F
:103A20001B2A3C3B4D4E00202B49087001202949A0
:103A300008704AE0324621462846FEF7F1FE074666
:103A4000384601F09DFE6420244908600220214987
:103A500008703AE022480078012803D103201D496C
:103A6000087005E01D48006810B904201949087065
:103A70002BE00520174908708120FFF799FD0128E8
:103A800007D12046FEF794FD012802D107201149F5
:103A900008701AE000BF10480078032808DA0E48C2
:103AA0000078401C0C49087001200A49087002E0A7
:103AB00006200849087008E000BF0020054908708A
:103AC00003E000200349087000BF00BF01480078F0
:103AD000BDE8F081C7000020C800002004000020DD
:103AE000BE0000200849094A1278885C0749097815
:103AF000312903D10021054A117004E003490978F6
:103B0000491C024A117070474C0A0020D000002066
:103B100010B508220349002005F042FE0446204665
:103B200010BD0000200800207CB5054600240020C0
:103B30000090019000F0EAF800F0007010B10E243F
:103B400020467CBD3D49098888B26946FEF726FFBC
:103B500004460CB12046F4E7012D36D1019800F45B
:103B6000802000282ED035480088000434490860A1
:103B700037204860402088600020C860A8020861A3
:103B8000084600F001F93720FEF754FA04460CB15C
:103B90002046D6E702202A490860062048604020D7
:103BA00088600020C8604FF480600861084600F01B
:103BB000EBF80620FEF73EFA04460CB12046C0E7BB
:103BC0002046BEE725242046BBE7019800F480305C
:103BD00078B31A4800880004194908603720486003
:103BE000402088600020C8604FF48060086108466B
:103BF00000F0CAF83720FEF71DFA04460CB1204643
:103C00009FE700200E490860062048604020886039
:103C10000020C8604FF480600861084600F0B4F8E6
:103C20000620FEF707FA04460CB1204689E7204635
:103C300087E7FFE72524204683E70000FC000020FB
:103C4000D00B00200149086070470000382C01406B
:103C50000149086070470000382C014001490860A4
:103C600070470000A08025420149086070470000AD
:103C70008C85254200210B4B02681A601B1D42688F
:103C80001A601A1D116821F0F701D0E902231A43C6
:103C900003691A4343691A431143024A0832116007
:103CA00070470000242C014010B50121C802FFF725
:103CB000B9FD00214FF40060FFF7B4FD10BD000016
:103CC00001480068C0B27047102C01400146002036
:103CD000034A12680A400AB1012000E00020704740
:103CE000342C014001460020034A12680A400AB100
:103CF000012000E000207047342C01400248006899
:103D000000F0030070470000002C014008B5014698
:103D1000002000900248084400900098006808BD08
:103D2000142C014010B500F099FD10BD29B1064AD0
:103D300012680243044B1A6004E0034A126882438B
:103D4000014B1A60704700003C2C014000210A4AD8
:103D5000116847F6FF629143027D83681A43436806
:103D60001A43C3681A4303681A4303691A43114389
:103D7000014A116070470000042C014001480068AE
:103D800070470000802C01400021094B02681A6036
:103D90001A1D11686FF30A01D0E901231A43C368A1
:103DA0001A4303691A431143014A121D11607047F7
:103DB000082C01400149086070470000002C0140B8
:103DC00000B5ADF50D7D01A9012007F087FD03A029
:103DD00007F0ACFF0DF50D7D00BD0000313A2F64FA
:103DE0006174612E7478740008B5012000909DF80C
:103DF000000008BD70B5044600252148006803286E
:103E000002D12725284670BD1D48006838B11C48DE
:103E10000068012803D01A48006802282ED1B4F5A2
:103E2000805F02D127252846EDE7B4F5006F14D155
:103E30000120FFF779FE054605BB022011490875F0
:103E400000200860486088604FF40060C86000206F
:103E500008610846FFF77AFF10E00020FFF764FED4
:103E600005465DB9022007490875002008604860D2
:103E70008860C86008610846FFF768FF2846C2E707
:103E8000F8000020B80B0020F0B501460020002209
:103E9000B74B1B7881F85630B64B1B88A1F85430CD
:103EA000B54B1B681A0E93090B70C2F383034B705A
:103EB00002F003038B70B04B1B68C3F30742CA7058
:103EC000AD4B1B88C3F307220A71AB4B1A784A71BA
:103ED0005B681A0E1301CB80A74B5B68C3F30742E4
:103EE000CB8843EA1213CB8002F00F030B72A24B74
:103EF0009B88C3F30722D3094B72C2F380138B72E2
:103F0000C2F34013CB72C2F300130B7300234B7345
:103F1000974B1B681BB1964B1B68012B4FD1930726
:103F20001B0D0B61944B1A790B6943EA82030B61F9
:103F3000914B9B681A0E0B6943EA92130B61C2F313
:103F4000C2030B7502F007034B758B4B9B68C3F3E1
:103F5000074253098B75C2F38203CB7593075B0F3E
:103F60000B76854B1B89C3F307220B7E43EAD213E2
:103F70000B760B695B1C0024C1E912340B7ED1E97E
:103F800012659B1C012404FA03F3DC17A6FB037CD7
:103F900005FB03C306FB0433C1E912730C7A01234A
:103FA000A3400B650027D1E912560B6DA5FB034C0E
:103FB00006FB03C305FB0733C1E9124323E06C4B47
:103FC0001B68022B1FD16C4B1A7993069B0A0B615D
:103FD000694B9B681A0E0B6943EA02230B61664B1F
:103FE0009B68C3F307420B6913430B61624B1B8948
:103FF000C3F307220B695B1CDB040024C1E9123404
:104000004FF400730B65C2F3801301F8193F930658
:104010005B0E4B70584B1A7A4B7843EAD2134B70B5
:1040200002F07F038B70544BDB681A0ED309CB7000
:10403000C2F341130B71C2F382034B7193071B0F41
:104040008B714D4BDB68C3F307428B7943EA9213C4
:104050008B71C2F34013CB7100230B7202F001038A
:104060004B72454B9B89C3F30722D3098B72C2F372
:104070008013CB72C2F340130B73C2F300134B7364
:10408000C2F381038B7302F00303CB733A4B1A7BA9
:1040900053080B7401234B74384B1B681A0ECA74F7
:1040A0001939364B1B68C3F307421402CC85334BD6
:1040B0001B88C3F30722CB8D1343CB852F4B1A7874
:1040C00014060C635B681A0E0B6B43EA02440C6324
:1040D0002A4B5B68C3F307420B6B43EA02240C6371
:1040E000264B9B88C3F307220B6B13430B63234BB5
:1040F0001A7934235A54214B9B681A0E35235A548B
:104100001E4B9B68C3F3074214068C631B4B1B8931
:10411000C3F307228B6B43EA02448C63174B1A7A72
:104120008B6B43EA02248C63144BDB681A0E8B6B97
:1041300013438B63114BDB68C3F307423C235B5C87
:1041400043EA12143C235C5413071C0DCC870B4B21
:104150009B89C3F30722CB8F1343CB87074B1A7B73
:10416000540840235C54012441235C54F0BD0000FA
:10417000F8000020FC000020300B0020400B002045
:1041800008B500200090FFF72FFE012809D16846EE
:1041900000F01CFE08B1FF2008BD0098C0F34320CA
:1041A000FAE7FF20F8E710B50424FFF7E9FF04461B
:1041B000042C01D1002010BDFF2C01D10220FAE710
:1041C0000120F8E730B5ADF50F7D03A8029003A9F3
:1041D000012007F083FB02AA01A90DA007F013FA42
:1041E00004461CB120460DF50F7D30BD0298807845
:1041F0000199484345084FF47A70B5FBF0F0054942
:1042000088820021012007F069FB0020EBE7000015
:10421000313A2F00000800201CB5002001904FF417
:10422000C060FFF71DFA31208DF8000000208DF8E6
:1042300001008DF8020001208DF803006846FFF7A9
:10424000D3F93B208DF8000001208DF8010068466D
:10425000FFF7CAF900F0AAF9FFF726FD00F0FAF916
:1042600001909DF8040010B19DF804001CBD00F001
:1042700031F801909DF8040010B19DF80400F5E7B5
:104280000220124908750020086048608860C860F4
:1042900008610846FFF75AFD0D48FFF7F5FD01904C
:1042A0009DF8040030B90A49B1F85410080400F030
:1042B00073FD01909DF8040020B94FF40060FFF7F2
:1042C00099FD01909DF80400D0E70000B80B002094
:1042D000600B002038B5002401200090FFF70EFD90
:1042E00010B92524204638BD44480068042828D049
:1042F00000204349086002204860C02088600020F8
:10430000C8604FF4806008610846FFF73DFDFDF787
:104310002BFF04460CB12046E5E70020FFF7F6FC32
:10432000384908600420FFF7F1FC3649486008204E
:10433000FFF7ECFC334988600C20FFF7E7FC3149BC
:10434000C8602E48006858B12C480068012807D082
:104350002A480068062803D028480068022816D199
:104360000020274908600320486040208860002022
:10437000C8604FF4806008610846FFF705FD694694
:104380000320FDF733FF04460CB12046ABE71B4882
:10439000006804282ED0BDF800001B490860BDF855
:1043A000000000041649086009204860C0208860A9
:1043B0000020C8604FF4806008610846FFF7E4FC05
:1043C000FDF7D2FE04460CB120468CE70020FFF733
:1043D0009DFC0E4908600420FFF798FC0B494860DB
:1043E0000820FFF793FC094988600C20FFF78EFC3A
:1043F0000649C8600024204675E70000F800002048
:10440000D00B0020400B0020FC000020300B0020CF
:1044100000B5ADF2544D6946012007F05FFA14492A
:104420000870132213A18CA807F06EFA10490870C7
:104430008F980A2811D900218CA807F06EF90C4931
:104440000870104B302210498CA807F029FB08494E
:1044500008708CA807F0CCF806E030220B490A4817
:10446000FBF78AFF00F066FC0DF2544D00BD000022
:10447000F1000020313A2F73657474696E67732EF2
:1044800074787400EC0000204008002070080020C0
:1044900030B58FB004460D464FF0FA511D48FDF778
:1044A0001DFF00211B48FDF733FF1A48FDF73CFFB5
:1044B0004FF0006000901848019002940020039093
:1044C000049005904FF48060069080000790800073
:1044D0000890002009904FF440300A9004200B907F
:1044E00003200C904FF400000D9080100E90694650
:1044F0000848FDF7EDFF012210210648FDF7CBFF2C
:1045000020210448FDF7BCFF01210248FDF700FF10
:104510000FB030BD58640240802C014030B58FB0E0
:1045200004460D464FF0FA511E48FDF7D7FE002114
:104530001C48FDF7EDFE1B48FDF7F6FE4FF000604E
:1045400000901948019002944020039000200490AC
:1045500005904FF4806006908000079080000890DE
:10456000002009904FF440300A9004200B90032063
:104570000C904FF400000D9080100E906946094891
:10458000FDF7A6FF012210210648FDF784FF202138
:104590000448FDF775FF01210248FDF7B9FE0FB091
:1045A00030BD000058640240802C01401CB5012140
:1045B0000C20FFF7F7F80C2208212448FEF700FB37
:1045C0000C2209212148FEF7FBFA0C220A211F4880
:1045D000FEF7F6FA0C220B211C48FEF7F1FA0C222A
:1045E00011461A48FEF7ECFA0C2202211848FEF791
:1045F000E7FA4FF47060009001208DF8050002206A
:104600008DF8040000208DF8060001208DF80700C9
:1046100069460E48FEF78CFA0420009069460C4863
:10462000FEF786FA4FF48050009000208DF80700C6
:1046300069460648FEF77CFA0121C802FFF7E2F856
:1046400001218805FFF7AEF81CBD000000080240FC
:10465000000C0240F8B50020009000250024002640
:10466000002776205F490875002008604860886050
:10467000C86008610846FFF769FB0320FFF79AFB53
:104680000120FFF7EBFA0020574908604860886076
:10469000C8604FF4806008610846FFF775FBFDF7BE
:1046A000B3FC00909DF8000010B19DF80000F8BD2B
:1046B0004FF4D5704C49086008204860402088605D
:1046C0000020C8604FF4806008610846FFF75CFB7B
:1046D000FDF7DAFD00909DF8000020B90120434964
:1046E0000860870712E000203F49086037204860D3
:1046F000402088600020C8604FF480600861084650
:10470000FFF742FB3720FDF795FC0090002036496B
:10471000086037204860402088600020C8604FF45F
:10472000806008610846FFF72FFB3720FDF782FC09
:1047300000909DF80000002851D13BE000202A495C
:10474000086037204860402088600020C8604FF42F
:10475000806008610846FFF717FB3720FDF76AFC09
:1047600000909DF8000010B19DF800009FE72048E0
:1047700038431D4908602920486040208860002097
:10478000C8604FF4806008610846FFF7FDFAFDF746
:1047900011FD00909DF8000010B19DF8000086E723
:1047A0000020FFF7B3FA0546012080EAD57080F0BB
:1047B0000106641C1EB94FF6FF708442BED34FF64B
:1047C000FF70844204D31B2000909DF800006EE728
:1047D00005F08040051E02D00220044908609DF8C3
:1047E000000064E7B80B0020D00B0020F800002088
:1047F0000000108010B50E488089012804D100F017
:1048000099FA00200A4988810948C088012804D102
:1048100000F028FA00200649C8800548C089012810
:1048200004D1FFF7CDFA00200149C88110BD000076
:104830003008002010B50748006800F0C05040B1B3
:104840000120054908604FF0C25102485830FDF779
:1048500045FD10BD006402400C01002010B54FF46E
:104860008070FFF73FFA50B10020254908704FF4DF
:104870008070FFF7EDF901202249086037E002203F
:10488000FFF730FA30B10220FFF7E2F902201C49AD
:1048900008702CE00820FFF725FA30B10820FFF758
:1048A000D7F904201649087021E02020FFF71AFAF2
:1048B00030B12020FFF7CCF906201149087016E02E
:1048C0001020FFF70FFA30B11020FFF7C1F90520D3
:1048D0000B4908700BE04FF40070FFF703FA30B19A
:1048E0004FF40070FFF7B4F9072005490870002164
:1048F0004CF23A30FFF71AFA0148007810BD000078
:1049000004010020080100202DE9F04180460D46F9
:1049100014461E46002700202E4908702E490860C4
:1049200001202E49086000202D4908602D480068AC
:10493000022801D104026D0A2B48046010202A4984
:104940004860402088600020C8604FF480600861A3
:104950000846FFF719FA1020FDF76CFB074617B160
:104960003846BDE8F0814FF0FF302049086006FB73
:1049700004F04860902088600220C8600020086130
:10498000012048610846FFF775F9174805601220B5
:1049900015494860402088600020C8604FF480605E
:1049A00008610846FFF7F0F91220FDF743FB0746C0
:1049B0000FB13846D5E7012140F22A30FFF7B6F9AA
:1049C0000120FFF751F906FB04F14046FFF760FDB7
:1049D0003846C6E70401002008010020000100203D
:1049E0002C2C0140F8000020D00B0020E40B00200C
:1049F00030B5ADF2544D6946012006F06FFF144901
:104A00000870132213A18CA806F07EFF10490870CD
:104A100000218CA806F081FE0D490870134D00247A
:104A20000EE0134B1B2213498CA807F039F80849F4
:104A300008701048143000F0D7FE2880AD1C641CAC
:104A4000182CEED38CA806F0D3FD0DF2544D30BDDA
:104A5000F0000020313A2F64656661756C745F73F5
:104A6000657474696E67732E747874007008002022
:104A7000EC000020AE0A0020F0B5ADF2544D044623
:104A80000F466946012006F029FF7049087013227D
:104A90006FA18CA806F038FF6C49087079018CA8CA
:104AA00006F03BFE694908706C4B20226C498CA8CB
:104AB00006F0F6FF654908708CA806F099FD674876
:104AC000006820287DD1664D2888002308222146D1
:104AD000FEF7D0FD0834202004F8010BAD1C288817
:104AE00000230A222146FEF7C5FD0A34202004F8DF
:104AF000010B002605E05A49301D085C04F8010B43
:104B0000761C142EF7DB3A2004F8040C04F8070C8A
:104B1000412004F8010B442004F8010B542004F850
:104B2000010B3A2004F8010B1635288801230522D1
:104B30002146FEF79FFD641D202004F8010B6F2025
:104B400004F8010B432004F8010B202004F8010BAA
:104B500004F8010B4D2004F8010B04F8010B54205C
:104B600004F8010B3A2004F8010BAD1C288801233E
:104B700005222146FEF77EFD641D202004F8010B6E
:104B80006F2004F8010B432004F8010B202004F8E7
:104B9000010B04F8010B532004F8010B4F2004F81B
:104BA000010B332004F8010B3A2004F8010BAD1C73
:104BB0002888012305222146FEF75CFD641D202084
:104BC00000E03AE004F8010B702004F8010B04F84F
:104BD000010B6D2004F8010B202004F8010B04F8F0
:104BE000010B482004F8010B322004F8010B53207C
:104BF00004F8010B4F2004F8010B342004F8010BDA
:104C00003A2004F8010BAD1C288801230522214617
:104C1000FEF730FD641D202004F8010B702004F81D
:104C2000010B04F8010B6D2004F8010B0D2004F8B2
:104C3000010B0A2004F8010B02E00420034908706C
:104C4000024800780DF2544DF0BD0000F400002041
:104C5000313A2F646174612E74787400EC00002086
:104C6000AE0A002000B5ADF2544D6946012006F0B1
:104C700035FE28490870132227A18CA806F044FEAF
:104C8000244908708CA88F9906F047FD21490870C7
:104C9000244B022224498CA807F0AAF81D49087069
:104CA000204B02222049891C8CA807F0A1F8194941
:104CB00008701C4B14221D498CA807F099F815495F
:104CC0000870184B02221A498CA807F091F8114974
:104CD0000870144B022216490E318CA807F088F890
:104CE0000C4908700F4B0222114908318CA807F0BB
:104CF0007FF8084908700B4B02220D490A318CA835
:104D000007F076F8034908708CA806F071FC0DF2E4
:104D1000544D00BDF3000020313A2F646174612EC0
:104D200074787400EC00002042080020A7080020DE
:104D30000808002000B5ADF2544D6946012006F088
:104D4000CDFD0E49087013220DA18CA806F0DCFDE4
:104D50000A49087000218CA806F0DFFC074908709A
:104D60000B4B30220B498CA807F042F8034908701E
:104D70008CA806F03DFC0DF2544D00BDF200002061
:104D8000313A2F73657474696E67732E747874008A
:104D9000EC0000204008002070B5044600250A48B9
:104DA0000460072008494860402088600020C860EF
:104DB0004FF4806008610846FEF7E6FF0720FDF724
:104DC00039F90546284670BDD00B002070B5044661
:104DD000002514B92625284670BD0F480088000418
:104DE0000E4908600D204860402088600020C8609F
:104DF0004FF4806008610846FEF7C6FF0D20FDF7FE
:104E000019F905460DB12846E6E70020FEF77EFFBA
:104E100020602846E0E70000FC000020D00B0020C6
:104E200010B5002400200A4908600C20486040208A
:104E300088600020C8604FF4806008610846FEF773
:104E4000A3FF0C20FDF7F6F80446204610BD000035
:104E5000D00B002070B500256C1E00E0641E1748C2
:104E6000006838B91648006820B91648007808B9B3
:104E7000002CF3D1002011490860441E00E0641E9C
:104E80001148006800F4005008B1002CF7D10F4819
:104E90000068012802D1FFF7C3FF05460CB905B928
:104EA000042540F2FF50FEF7CDFE0648007810B111
:104EB0000448007870BD2846FCE700000C01002083
:104EC0000801002004010020342C014000010020D2
:104ED00070B500256C1E00E0641E1748006838B9E4
:104EE0001648006820B91648007808B9002CF3D19C
:104EF000002011490860441E00E0641E114800684B
:104F000000F4805008B1002CF7D10F480068012848
:104F100002D1FFF785FF05460CB905B9042540F21B
:104F2000FF50FEF78FFE0648007810B10448007865
:104F300070BD2846FCE700000C010020080100209D
:104F400004010020342C0140000100202DE9F04133
:104F500080460F4615461E4600240020454908702D
:104F6000454908600120454908600020444908601F
:104F700044480068022801D105027F0A42480560C2
:104F8000102041494860402088600020C8604FF4EC
:104F9000806008610846FEF7F7FE1020FDF74AF82A
:104FA000044614B12046BDE8F0813848008800046A
:104FB0003549086037204860402088600020C8607C
:104FC0004FF4806008610846FEF7DEFE3720FDF7EB
:104FD00031F804460CB12046E5E72B48066017205F
:104FE00029494860402088600020C8604FF48060F4
:104FF00008610846FEF7C8FE1720FDF71BF80446B7
:105000000CB12046CFE72048076019201E494860B0
:10501000402088600020C8604FF480600861084626
:10502000FEF7B2FE1920FDF705F804460CB1204644
:10503000B9E74FF0FF301649086006FB05F04860FD
:10504000902088600020C8600861012048610846FF
:10505000FEF710FE012140F22A30FEF767FE012024
:10506000FEF702FE06FB05F14046FFF757FA204621
:1050700099E7000004010020080100200001002041
:105080002C2C0140F8000020D00B0020FC00002058
:10509000E40B00207047000070B52DED0E8B85E10C
:1050A000FEF720FDFD490A780978491CFB4B197071
:1050B000FB498854184600781328F0D10846007838
:1050C00024287DD11121F648FDF7A1FD0646F448BC
:1050D000407CF1B2884274D1F148807CB0EB162F4D
:1050E000F9D1012406E0EE48015D601EEC4A11543E
:1050F000601CC4B2132CF6DBE94D95ED000ABCEE42
:10510000C00A10EE100AE749488195ED010ABCEE8D
:10511000C00A10EE100A888195ED030ABCEEC00AA1
:1051200010EE100AC88195ED020ABCEEC00A10EE1E
:10513000100AC880DC48C08A0A2190FBF1F0D949E6
:1051400049890844D7494881D748008B0A2190FBF8
:10515000F1F0D4494989081AD2494881D248408996
:105160000A2190FBF1F0CF4989890844CD49888113
:10517000CD4880890A2190FBF1F0CA498989081A33
:10518000C84988810846C089C749498A0844C54931
:10519000C8810846C089C449898A401AC149C88162
:1051A000C148C0890A2190FBF1F0BE49C988084472
:1051B000BC49C880BC48008A0A2190FBF1F001E09C
:1051C000E4E0D2E0B749C988081AB649C880084661
:1051D0004089B0F5004F02DB0020488108E0B1486B
:1051E000408940F2DC51884202DD0846AD494881E1
:1051F000AC488089B0F5004F03DB0020A9498881C5
:1052000008E0A8488089B0F5167F03DD4FF41670DA
:10521000A4498881A348C088B0F5004F03DB002073
:10522000A049C88008E09F48C088B0F5167F03DD1C
:105230004FF416709B49C8809A4A91895089FDF7AE
:10524000FDF99A48007800287ED19948006808F056
:10525000E9F941EC190B9FED970B53EC102B07F07C
:10526000EBFE41EC180B07F03BFC914908608D49BF
:10527000488907F092FE41EC1B0B9FED900B53EC1D
:10528000102B07F0D9FE41EC190B8948006808F093
:10529000C9F941EC1A0B53EC192B07F053FC41EC04
:1052A000180B07F01DFC82490860084690ED000AC3
:1052B000844880ED000A084690ED000ADFED820A7E
:1052C000B4EEE00AF1EE10FA48DD7648408900EECF
:1052D000100AB8EE400A0846D0ED000AB1EE041AF2
:1052E00070EE810AB4EEE00AF1EE10FA36D26D48A3
:1052F000408900EE100AB8EE400A0846D0ED000AD8
:10530000B1EE041A70EEC10AB4EEE00AF1EE10FA42
:1053100024DD6E480088401C6C49088008460088DF
:105320006B4908806948008805281ADD01205F491B
:1053300008705C48808900EB80004FF6FF7101EA3D
:1053400040005849088100E00BE000205F490880D8
:105350009FED600A564880ED000A02E000205B499C
:10536000088000204D49087020E0012406E04C48E8
:10537000015D601E4A4A1154601CC4B2132CF6DB56
:1053800046480078401E454908700FE0012406E0B9
:105390004348015D601E424A1154601CC4B2132C84
:1053A000F6DB3E480078401E3C4908704A480078C9
:1053B0004A49097888427FF473AE3C480078012856
:1053C0006BD13848008900EE100AB8EE400AB0EE02
:1053D000408AB2EE040AC8EE000AB0EE608A9FED81
:1053E000400A38EE400AB0EE408A9FED3E0AB0EE29
:1053F00040AA9FED3D0AF0EE40AA9FED3C0AB0EEB8
:1054000040EA9FED3B0AF0EE40EA2AEE080A20EE61
:10541000080A20EE080A6AEE880A00EE880A0EEEF4
:10542000080A30EE6E0AF0EE409A1F48408B0A21BF
:1054300090FBF1F000EE100AB8EEC00A30EE290A37
:10544000F0EE409A1848808B90FBF1F000EE100AC5
:10545000B8EEC00A39EEC00AF0EE409AB2EE040A85
:1054600029EE800ABCEEC00A10EE100A0D4908822F
:105470000846008900EE100AB8EE400AB0EE408AF5
:10548000B2EE040AC8EE000AB0EE608A064800894F
:1054900000EE100AB8EE400A2CE0B7E0DA00002077
:1054A000800A00200008002040080020E2000020C0
:1054B000DC0000209A9999999999E93F9A999999CC
:1054C0009999C93FD400002000004842E000002024
:1054D000D800002000000000D0000020D1000020F3
:1054E0000000C8423F32C2391FF7AD3B180AD83B13
:1054F000A69BC4BBB0EE409AB2EE040AC9EE000A05
:10550000B0EE609A19EE100A08F08CF841EC1D0B11
:105510009FED470B53EC102B07F08EFD41EC1C0B5D
:105520009FED450B53EC102B07F00CFB41EC1B0BD4
:1055300007F0D6FA0AEE100A19EE100A08F072F80F
:1055400041EC1C0B9FED3E0B53EC102B07F074FD50
:1055500041EC1D0B9FED3C0B53EC102B07F0F2FAC6
:1055600041EC1B0B07F0BCFA0AEE900AB0EE6A0A97
:105570001AEE080AF0EE408A18EE900A08F052F887
:1055800041EC1C0BB0EE4C1AF0EE6C1A9FED300B98
:1055900004F006FAB0EE40BAF0EE60BA51EC1B0B24
:1055A00007F09EFA08EE900A2B48C08B0A2190FB68
:1055B000F1F000EE100AB8EEC00A30EE280AF0EE64
:1055C000408A2548008C90FBF1F000EE100AB8EEFE
:1055D000C00A38EEC00AF0EE408AB2EE040A28EEA5
:1055E000800ABCEEC00A10EE100A1C494882084628
:1055F00000891949C988084480B21849C88200EE58
:10560000100AB8EE400AB0EE40AA00BF14488088E5
:10561000012809D1002011490881C88208824882E6
:10562000104908700E498880BDEC0E8B70BD0000DB
:105630007244C6BCF1624F3F0E4E44BFB67EA23FDD
:1056400013D55B035B25C83FEC51B81E85EB0B40BF
:105650000000000000002440400800200008002056
:1056600030080020E20000200CB5002001900090DE
:105670003448006840F480303249086000BF314847
:10568000006800F4003000900198401C01900098E0
:1056900018B90198B0F5A04FF1D12A48006800F47C
:1056A000003010B10120009001E00020009000982F
:1056B000012846D123484030006840F080502149FD
:1056C000403108602048006840F440401E490860AE
:1056D0001C48083000681B4908310860084600680B
:1056E00040F4004008600846006840F4A05008609C
:1056F0001648091F0860081F006840F08070091FE5
:10570000086000BF0F48006800F000700028F9D062
:1057100040F205700E4908600A480830006820F021
:1057200003000849083108600846006840F002009C
:10573000086000BF03480830006800F00C0008282B
:10574000F8D10CBD003802400070004019544007E9
:10575000003C024010B5002007490870012240F2C9
:105760002441064800F08DFA012240F225510348F9
:1057700000F087FA10BD0000BD0000200048004086
:1057800010B5044600200949087009490C70094900
:10579000087009480978405C08490880012240F2F5
:1057A00026610648001F00F06CFA10BDBE00002004
:1057B000BB000020BC0000208409002004480040F9
:1057C00010B500200549087005490870012240F213
:1057D0002551044800F055FA10BD0000D10000200A
:1057E000D00000200014014010B50146002011F83F
:1057F000013BA3F1300240F27123534300EB03104D
:1058000011F8013BA3F1300202EB4203C3EBC213D8
:1058100000EBC30011F8013BA3F1300202EBC2031D
:1058200003EB021300EB830011F8013BA3F13002FC
:1058300002EB820300EB430011F8013BA3F13002BD
:10584000131898B210BD70B504462146032004F029
:1058500011F80546284670BD10B500F001F810BDDE
:1058600012480068401C114908601148006820B1C6
:105870000F480068401E0E4908600E48006820B1BD
:105880000C480068401E0B4908600B48006820B1B6
:1058900009480068401E084908600848006820B1AF
:1058A00006480068401E0549086070470000002057
:1058B00004000020080000200C0000201000002040
:1058C00010B51548006840F470001349086013488B
:1058D000006840F001001149086000200F490831BC
:1058E00008600E4800680E4908400C4908600D48E1
:1058F000091D0860081F006820F48020091F086047
:10590000002006490C310860FFF7AEFE4FF0006042
:1059100001498039086010BD88ED00E00038024080
:10592000FFFFF6FE1030002410B502F0B5F910BDEF
:1059300021B1028842F08002028004E002884FF622
:105940007F731A4002807047CA430282704721B1B8
:10595000028842F00102028004E002884FF6FE73E2
:105960001A400280704730B5024600200023002410
:10597000158A05EA0103958905EA010413B10CB102
:10598000012000E0002030BD1AB183890B438381E0
:1059900002E083898B4383817047000000220288E4
:1059A000184B98420ED0184B98420BD0B0F1804F54
:1059B00008D0164B984205D0154B984202D0154B93
:1059C000984204D14FF68F731A404B881A43124BFA
:1059D000984207D0114B984204D04FF6FF431A402B
:1059E0000B891A4302804B68C3620B880385054B01
:1059F000984202D0044B984201D18B7A038601234E
:105A00008382704700000140000401400004004010
:105A100000080040000C004000100040001400404E
:105A200010B500BF2021154800F01EF90028F9D05C
:105A3000124800F0B5F9C1B21148426E406E401CE8
:105A40000F4B586618468154406E401E1946085C3C
:105A50000A2810D10846406E801E085C0D280AD125
:105A600000211846406E401E1A461154002011466F
:105A7000486601208866002010BD0000001001402B
:105A80003000002010B52748008800F0100088B1D1
:105A90002448001D0088002240F22441214800F0E3
:105AA000F0F8002240F225511E4800F0EAF80120EB
:105AB0001D4908701B48008800F04000F8B14FF6FF
:105AC000BF701849088019480078401E17490870AF
:105AD0000846007858B116480078401C14490870F0
